{
 "cells": [
  {
   "cell_type": "code",
   "execution_count": 1,
   "metadata": {},
   "outputs": [],
   "source": [
    "############## PLEASE RUN THIS CELL FIRST! ###################\n",
    "\n",
    "# import everything and define a test runner function\n",
    "from importlib import reload\n",
    "from helper import run\n",
    "import ecc\n",
    "import helper\n",
    "import op\n",
    "import script\n",
    "import tx"
   ]
  },
  {
   "cell_type": "markdown",
   "metadata": {},
   "source": [
    "### Exercise 1\n",
    "\n",
    "Write the `op_checkmultisig` function of `op.py`.\n",
    "\n",
    "#### Make [this test](/edit/code-ch08/op.py) pass: `op.py:OpTest:test_op_checkmultisig`"
   ]
  },
  {
   "cell_type": "code",
   "execution_count": 2,
   "metadata": {},
   "outputs": [],
   "source": [
    "# Exercise 1\n",
    "\n",
    "reload(op)\n",
    "def op_checkmultisig(stack, z):\n",
    "    if len(stack) < 1:\n",
    "        return False\n",
    "    n = decode_num(stack.pop())\n",
    "    if len(stack) < n + 1:\n",
    "        return False\n",
    "    sec_pubkeys = []\n",
    "    for _ in range(n):\n",
    "        sec_pubkeys.append(stack.pop())\n",
    "    m = decode_num(stack.pop())\n",
    "    if len(stack) < m + 1:\n",
    "        return False\n",
    "    der_signatures = []\n",
    "    for _ in range(m):\n",
    "        der_signatures.append(stack.pop()[:-1])\n",
    "    stack.pop()\n",
    "    try:\n",
    "        points = [S256Point.parse(sec) for sec in sec_pubkeys]\n",
    "        sigs = [Signature.parse(der) for der in der_signatures]\n",
    "        for sig in sigs:\n",
    "            if len(points) == 0:\n",
    "                return False\n",
    "            while points:\n",
    "                point = points.pop(0)\n",
    "                if point.verify(z, sig):\n",
    "                    break\n",
    "        stack.append(encode_num(1))\n",
    "    except (ValueError, SyntaxError):\n",
    "        return False\n",
    "    return True"
   ]
  },
  {
   "cell_type": "code",
   "execution_count": 3,
   "metadata": {},
   "outputs": [
    {
     "name": "stdout",
     "output_type": "stream",
     "text": [
      "3CLoMMyuoDQTPRD3XYZtCvgvkadrAdvdXh\n"
     ]
    }
   ],
   "source": [
    "from helper import encode_base58_checksum\n",
    "h160 = bytes.fromhex('74d691da1574e6b3c192ecfb52cc8984ee7b6c56')\n",
    "print(encode_base58_checksum(b'\\x05' + h160))\n",
    "\n",
    "# result : 3CLoMMyuoDQTPRD3XYZtCvgvkadrAdvdXh"
   ]
  },
  {
   "cell_type": "markdown",
   "metadata": {},
   "source": [
    "### Exercise 2\n",
    "\n",
    "Write `h160_to_p2pkh_address` that converts a 20-byte hash160 into a p2pkh address.\n",
    "\n",
    "#### Make [this test](/edit/code-ch08/helper.HelperTest.py) pass: `helper.HelperTest.py::test_p2pkh_address`"
   ]
  },
  {
   "cell_type": "code",
   "execution_count": 4,
   "metadata": {},
   "outputs": [],
   "source": [
    "# Exercise 2\n",
    "\n",
    "def h160_to_p2pkh_address(h160, testnet=False):\n",
    "    if testnet:\n",
    "        prefix = b'\\x6f'\n",
    "    else:\n",
    "        prefix = b'\\x00'\n",
    "    return encode_base58_checksum(prefix + h160)"
   ]
  },
  {
   "cell_type": "markdown",
   "metadata": {},
   "source": [
    "### Exercise 3\n",
    "\n",
    "Write `h160_to_p2sh_address` that converts a 20-byte hash160 into a p2sh address.\n",
    "\n",
    "#### Make [this test](/edit/code-ch08/helper.HelperTest.py) pass: `helper.HelperTest.py::test_p2sh_address`"
   ]
  },
  {
   "cell_type": "code",
   "execution_count": 5,
   "metadata": {},
   "outputs": [],
   "source": [
    "# Exercise 3\n",
    "\n",
    "def h160_to_p2sh_address(h160, testnet=False):\n",
    "    if testnet:\n",
    "        prefix = b'\\xc4'\n",
    "    else:\n",
    "        prefix = b'\\x05'\n",
    "    return encode_base58_checksum(prefix + h160)"
   ]
  },
  {
   "cell_type": "code",
   "execution_count": 6,
   "metadata": {},
   "outputs": [
    {
     "name": "stdout",
     "output_type": "stream",
     "text": [
      "0xe71bfa115715d6fd33796948126f40a8cdd39f187e4afb03896795189fe1423c\n"
     ]
    }
   ],
   "source": [
    "from helper import hash256\n",
    "modified_tx = bytes.fromhex('0100000001868278ed6ddfb6c1ed3ad5f8181eb0c7a385aa0836f01d5e4789e6bd304d87221a000000475221022626e955ea6ea6d98850c994f9107b036b1334f18ca8830bfff1295d21cfdb702103b287eaf122eea69030a0e9feed096bed8045c8b98bec453e1ffac7fbdbd4bb7152aeffffffff04d3b11400000000001976a914904a49878c0adfc3aa05de7afad2cc15f483a56a88ac7f400900000000001976a914418327e3f3dda4cf5b9089325a4b95abdfa0334088ac722c0c00000000001976a914ba35042cfe9fc66fd35ac2224eebdafd1028ad2788acdc4ace020000000017a91474d691da1574e6b3c192ecfb52cc8984ee7b6c56870000000001000000')\n",
    "s256 = hash256(modified_tx)\n",
    "z = int.from_bytes(s256, 'big')\n",
    "print(hex(z))\n",
    "\n",
    "# result : 0xe71bfa115715d6fd33796948126f40a8cdd39f187e4afb03896795189fe1423c"
   ]
  },
  {
   "cell_type": "code",
   "execution_count": 7,
   "metadata": {},
   "outputs": [
    {
     "name": "stdout",
     "output_type": "stream",
     "text": [
      "True\n"
     ]
    }
   ],
   "source": [
    "from ecc import S256Point, Signature\n",
    "from helper import hash256\n",
    "modified_tx = bytes.fromhex('0100000001868278ed6ddfb6c1ed3ad5f8181eb0c7a385aa0836f01d5e4789e6bd304d87221a000000475221022626e955ea6ea6d98850c994f9107b036b1334f18ca8830bfff1295d21cfdb702103b287eaf122eea69030a0e9feed096bed8045c8b98bec453e1ffac7fbdbd4bb7152aeffffffff04d3b11400000000001976a914904a49878c0adfc3aa05de7afad2cc15f483a56a88ac7f400900000000001976a914418327e3f3dda4cf5b9089325a4b95abdfa0334088ac722c0c00000000001976a914ba35042cfe9fc66fd35ac2224eebdafd1028ad2788acdc4ace020000000017a91474d691da1574e6b3c192ecfb52cc8984ee7b6c56870000000001000000')\n",
    "h256 = hash256(modified_tx)\n",
    "z = int.from_bytes(h256, 'big')\n",
    "sec = bytes.fromhex('022626e955ea6ea6d98850c994f9107b036b1334f18ca8830bfff1295d21cfdb70')\n",
    "der = bytes.fromhex('3045022100dc92655fe37036f47756db8102e0d7d5e28b3beb83a8fef4f5dc0559bddfb94e02205a36d4e4e6c7fcd16658c50783e00c341609977aed3ad00937bf4ee942a89937')\n",
    "point = S256Point.parse(sec)\n",
    "sig = Signature.parse(der)\n",
    "print(point.verify(z, sig))\n",
    "\n",
    "# result : True"
   ]
  },
  {
   "cell_type": "markdown",
   "metadata": {},
   "source": [
    "### Exercise 4\n",
    "\n",
    "Validate the second signature from the transaction above."
   ]
  },
  {
   "cell_type": "code",
   "execution_count": 15,
   "metadata": {},
   "outputs": [
    {
     "ename": "NameError",
     "evalue": "name 'Txin' is not defined",
     "output_type": "error",
     "traceback": [
      "\u001b[0;31m---------------------------------------------------------------------------\u001b[0m",
      "\u001b[0;31mNameError\u001b[0m                                 Traceback (most recent call last)",
      "\u001b[0;32m<ipython-input-15-51a30b2aa964>\u001b[0m in \u001b[0;36m<module>\u001b[0;34m\u001b[0m\n\u001b[1;32m     19\u001b[0m \u001b[0ms\u001b[0m \u001b[0;34m+=\u001b[0m \u001b[0mencode_varint\u001b[0m\u001b[0;34m(\u001b[0m\u001b[0mlen\u001b[0m\u001b[0;34m(\u001b[0m\u001b[0mtx_obj\u001b[0m\u001b[0;34m.\u001b[0m\u001b[0mtx_ins\u001b[0m\u001b[0;34m)\u001b[0m\u001b[0;34m)\u001b[0m\u001b[0;34m\u001b[0m\u001b[0;34m\u001b[0m\u001b[0m\n\u001b[1;32m     20\u001b[0m \u001b[0mi\u001b[0m \u001b[0;34m=\u001b[0m \u001b[0mtx_obj\u001b[0m\u001b[0;34m.\u001b[0m\u001b[0mtx_ins\u001b[0m\u001b[0;34m[\u001b[0m\u001b[0;36m0\u001b[0m\u001b[0;34m]\u001b[0m\u001b[0;34m\u001b[0m\u001b[0;34m\u001b[0m\u001b[0m\n\u001b[0;32m---> 21\u001b[0;31m \u001b[0ms\u001b[0m \u001b[0;34m+=\u001b[0m \u001b[0mTxin\u001b[0m\u001b[0;34m(\u001b[0m\u001b[0mi\u001b[0m\u001b[0;34m.\u001b[0m\u001b[0mprev_tx\u001b[0m\u001b[0;34m,\u001b[0m \u001b[0mi\u001b[0m\u001b[0;34m.\u001b[0m\u001b[0mprev_index\u001b[0m\u001b[0;34m,\u001b[0m \u001b[0mredeem_script\u001b[0m\u001b[0;34m,\u001b[0m \u001b[0mi\u001b[0m\u001b[0;34m.\u001b[0m\u001b[0msequence\u001b[0m\u001b[0;34m)\u001b[0m\u001b[0;34m.\u001b[0m\u001b[0mserialize\u001b[0m\u001b[0;34m(\u001b[0m\u001b[0;34m)\u001b[0m\u001b[0;34m\u001b[0m\u001b[0;34m\u001b[0m\u001b[0m\n\u001b[0m\u001b[1;32m     22\u001b[0m \u001b[0ms\u001b[0m \u001b[0;34m+=\u001b[0m \u001b[0mencode_varint\u001b[0m\u001b[0;34m(\u001b[0m\u001b[0mlen\u001b[0m\u001b[0;34m(\u001b[0m\u001b[0mtx_obj\u001b[0m\u001b[0;34m.\u001b[0m\u001b[0mtx_outs\u001b[0m\u001b[0;34m)\u001b[0m\u001b[0;34m)\u001b[0m\u001b[0;34m\u001b[0m\u001b[0;34m\u001b[0m\u001b[0m\n\u001b[1;32m     23\u001b[0m \u001b[0;32mfor\u001b[0m \u001b[0mtx_out\u001b[0m \u001b[0;32min\u001b[0m \u001b[0mtx_obj\u001b[0m\u001b[0;34m.\u001b[0m\u001b[0mtx_outs\u001b[0m\u001b[0;34m:\u001b[0m\u001b[0;34m\u001b[0m\u001b[0;34m\u001b[0m\u001b[0m\n",
      "\u001b[0;31mNameError\u001b[0m: name 'Txin' is not defined"
     ]
    }
   ],
   "source": [
    "# Exercise 4\n",
    "\n",
    "from io import BytesIO\n",
    "from ecc import S256Point, Signature\n",
    "from helper import encode_varint, hash256, int_to_little_endian\n",
    "from script import Script\n",
    "from tx import Tx, SIGHASH_ALL\n",
    "\n",
    "hex_tx = '0100000001868278ed6ddfb6c1ed3ad5f8181eb0c7a385aa0836f01d5e4789e6bd304d87221a000000db00483045022100dc92655fe37036f47756db8102e0d7d5e28b3beb83a8fef4f5dc0559bddfb94e02205a36d4e4e6c7fcd16658c50783e00c341609977aed3ad00937bf4ee942a8993701483045022100da6bee3c93766232079a01639d07fa869598749729ae323eab8eef53577d611b02207bef15429dcadce2121ea07f233115c6f09034c0be68db99980b9a6c5e75402201475221022626e955ea6ea6d98850c994f9107b036b1334f18ca8830bfff1295d21cfdb702103b287eaf122eea69030a0e9feed096bed8045c8b98bec453e1ffac7fbdbd4bb7152aeffffffff04d3b11400000000001976a914904a49878c0adfc3aa05de7afad2cc15f483a56a88ac7f400900000000001976a914418327e3f3dda4cf5b9089325a4b95abdfa0334088ac722c0c00000000001976a914ba35042cfe9fc66fd35ac2224eebdafd1028ad2788acdc4ace020000000017a91474d691da1574e6b3c192ecfb52cc8984ee7b6c568700000000'\n",
    "hex_sec = '03b287eaf122eea69030a0e9feed096bed8045c8b98bec453e1ffac7fbdbd4bb71'\n",
    "hex_der = '3045022100da6bee3c93766232079a01639d07fa869598749729ae323eab8eef53577d611b02207bef15429dcadce2121ea07f233115c6f09034c0be68db99980b9a6c5e754022'\n",
    "hex_redeem_script = '475221022626e955ea6ea6d98850c994f9107b036b1334f18ca8830bfff1295d21cfdb702103b287eaf122eea69030a0e9feed096bed8045c8b98bec453e1ffac7fbdbd4bb7152ae'\n",
    "sec = bytes.fromhex(hex_sec)\n",
    "der = bytes.fromhex(hex_der)\n",
    "redeem_script = Script.parse(BytesIO(bytes.fromhex(hex_redeem_script)))\n",
    "stream = BytesIO(bytes.fromhex(hex_tx))\n",
    "tx_obj = Tx.parse(stream)\n",
    "s = int_to_little_endian(tx_obj.version, 4)\n",
    "s += encode_varint(len(tx_obj.tx_ins))\n",
    "i = tx_obj.tx_ins[0]\n",
    "s += Txin(i.prev_tx, i.prev_index, redeem_script, i.sequence).serialize()\n",
    "s += encode_varint(len(tx_obj.tx_outs))\n",
    "for tx_out in tx_obj.tx_outs:\n",
    "    s += tx_out.serialize()\n",
    "s += int_to_little_endian(tx_obj.locktime, 4)\n",
    "s += int_to_little_endian(SIGHASH_ALL, 4)\n",
    "z = int.from_bytes(hash256(s), 'big')\n",
    "point = S256Point.parse(sec)\n",
    "sig = Signature.parse(der)\n",
    "print(point.verify(z, sig))\n",
    "\n",
    "\n",
    "# result : True"
   ]
  },
  {
   "cell_type": "markdown",
   "metadata": {},
   "source": [
    "### Exercise 5\n",
    "\n",
    "Modify the `sig_hash` and `verify_input` methods to be able to verify p2sh transactions.\n",
    "\n",
    "#### Make [this test](/edit/code-ch08/tx.py) pass: `tx.py:TxTest:test_verify_p2sh`"
   ]
  },
  {
   "cell_type": "code",
   "execution_count": 16,
   "metadata": {},
   "outputs": [],
   "source": [
    "# Exercise 5\n",
    "\n",
    "reload(tx)\n",
    "def sig_hash(self, input_index, redeem_script=None):\n",
    "    '''Returns the integer representation of the hash that needs to get\n",
    "    signed for index input_index'''\n",
    "    s = int_to_little_endian(self.version, 4)\n",
    "    s += encode_varint(len(self.tx_ins))\n",
    "    for i, tx_in in enumerate(self.tx_ins):\n",
    "        if i == input_index:\n",
    "            if redeem_script:\n",
    "                script_sig = redeem_script\n",
    "            else:\n",
    "                script_sig = tx_in.script_pubkey(self.testnet)\n",
    "        else:\n",
    "            script_sig = None\n",
    "        s += TxIn(\n",
    "            prev_tx=tx_in.prev_tx,\n",
    "            prev_index=tx_in.prev_index,\n",
    "            script_sig=script_sig,\n",
    "            sequence=tx_in.sequence,\n",
    "        ).serialize()\n",
    "    s += encode_varint(len(self.tx_outs))\n",
    "    for tx_out in self.tx_outs:\n",
    "        s += tx_out.serialize()\n",
    "    s += int_to_little_endian(self.locktime, 4)\n",
    "    s += int_to_little_endian(SIGHASH_ALL, 4)\n",
    "    h256 = hash256(s)\n",
    "    return int.from_bytes(h256, 'big')\n",
    "\n",
    "\n",
    "def verify_input(self, input_index):\n",
    "    tx_in = self.tx_ins[input_index]\n",
    "    script_pubkey = tx_in.script_pubkey(testnet=self.testnet)\n",
    "    if script_pubkey.is_p2sh_script_pubkey():\n",
    "        cmd = tx_in.script_sig.cmds[-1]\n",
    "        raw_redeem = encode_varint(len(cmd)) + cmd\n",
    "        redeem_script = Script.parse(BytesIO(raw_redeem))\n",
    "    else:\n",
    "        redeem_script = None\n",
    "    z = self.sig_hash(input_index, redeem_script)\n",
    "    combined = tx_in.script_sig + script_pubkey\n",
    "    return combined.evaluate(z)"
   ]
  },
  {
   "cell_type": "code",
   "execution_count": null,
   "metadata": {},
   "outputs": [],
   "source": []
  }
 ],
 "metadata": {
  "kernelspec": {
   "display_name": "Python 3",
   "language": "python",
   "name": "python3"
  },
  "language_info": {
   "codemirror_mode": {
    "name": "ipython",
    "version": 3
   },
   "file_extension": ".py",
   "mimetype": "text/x-python",
   "name": "python",
   "nbconvert_exporter": "python",
   "pygments_lexer": "ipython3",
   "version": "3.7.4"
  }
 },
 "nbformat": 4,
 "nbformat_minor": 2
}
