{
 "cells": [
  {
   "cell_type": "code",
   "execution_count": 1,
   "metadata": {},
   "outputs": [],
   "source": [
    "############## PLEASE RUN THIS CELL FIRST! ###################\n",
    "\n",
    "# import everything and define a test runner function\n",
    "from importlib import reload\n",
    "from helper import run\n",
    "import ecc\n",
    "import helper\n",
    "import script\n",
    "import tx"
   ]
  },
  {
   "cell_type": "markdown",
   "metadata": {},
   "source": [
    "### Exercise 1\n",
    "\n",
    "Write the version parsing part of the `parse` method that we've defined. To do this properly, you'll have to convert 4 bytes into a Little-Endian integer.\n",
    "\n",
    "#### Make [this test](/edit/code-ch05/tx.py) pass: `tx.py:TxTest:test_parse_version`"
   ]
  },
  {
   "cell_type": "code",
   "execution_count": 2,
   "metadata": {},
   "outputs": [
    {
     "name": "stderr",
     "output_type": "stream",
     "text": [
      "E\n",
      "======================================================================\n",
      "ERROR: setUpClass (tx.TxTest)\n",
      "----------------------------------------------------------------------\n",
      "Traceback (most recent call last):\n",
      "  File \"/Users/gim-yeon-ug/programmingbitcoin/code-ch05/tx.py\", line 240, in setUpClass\n",
      "    TxFetcher.load_cache(cls.cache_file)\n",
      "  File \"/Users/gim-yeon-ug/programmingbitcoin/code-ch05/tx.py\", line 61, in load_cache\n",
      "    tx = Tx.parse(BytesIO(raw))\n",
      "  File \"/Users/gim-yeon-ug/programmingbitcoin/code-ch05/tx.py\", line 119, in parse\n",
      "    raise NotImplementedError\n",
      "NotImplementedError\n",
      "\n",
      "----------------------------------------------------------------------\n",
      "Ran 0 tests in 0.003s\n",
      "\n",
      "FAILED (errors=1)\n"
     ]
    }
   ],
   "source": [
    "# Exercise 1\n",
    "\n",
    "reload(tx)\n",
    "run(tx.TxTest(\"test_parse_version\"))"
   ]
  },
  {
   "cell_type": "code",
   "execution_count": 3,
   "metadata": {},
   "outputs": [
    {
     "name": "stdout",
     "output_type": "stream",
     "text": [
      "3045022100ed81ff192e75a3fd2304004dcadb746fa5e24c5031ccfcf21320b0277457c98f02207a986d955c6e0cb35d446a89d3f56100f4d7f67801c31967743a9c8e10615bed01 0349fc4e631e3624a545de3f89f5d8684c7b8138bd94bdd531d2e213bf016b278a\n"
     ]
    }
   ],
   "source": [
    "from io import BytesIO\n",
    "from script import Script\n",
    "script_hex = ('6b483045022100ed81ff192e75a3fd2304004dcadb746fa5e24c5031ccfcf21320b0277457c98f02207a986d955c6e0cb35d446a89d3f56100f4d7f67801c31967743a9c8e10615bed01210349fc4e631e3624a545de3f89f5d8684c7b8138bd94bdd531d2e213bf016b278a')\n",
    "stream = BytesIO(bytes.fromhex(script_hex))\n",
    "script_sig = Script.parse(stream)\n",
    "print(script_sig)\n",
    "def parse(cls, s, testnet=False):\n",
    "        version = little_endian_to_int(s.read(4))\n",
    "        return cls(version, None, None, None, testnet=testnet)"
   ]
  },
  {
   "cell_type": "markdown",
   "metadata": {},
   "source": [
    "### Exercise 2\n",
    "\n",
    "Write the inputs parsing part of the `parse` method in `Tx` and the `parse` method for `TxIn`.\n",
    "\n",
    "#### Make [this test](/edit/code-ch05/tx.py) pass: `tx.py:TxTest:test_parse_inputs`"
   ]
  },
  {
   "cell_type": "code",
   "execution_count": 15,
   "metadata": {},
   "outputs": [],
   "source": [
    "# Exercise 2\n",
    "\n",
    "reload(tx)\n",
    "run(tx.TxTest(\"test_parse_inputs\"))\n",
    "\n",
    "def parse(cls, s, testnet=False):\n",
    "        version = little_endian_to_int(s.read(4))\n",
    "        num_inputs = read_varint(s)\n",
    "        inputs = []\n",
    "        for _ in range(num_inputs):\n",
    "            inputs.append(TxIn.parse(s))\n",
    "        return cls(version, inputs, None, None, testnet=testnet)\n",
    "    \n",
    "def parse(cls, s):\n",
    "    '''Takes a byte stream and parses the tx_input at the start.\n",
    "    Returns a TxIn object.\n",
    "    '''\n",
    "    prev_tx = s.read(32)[::-1]\n",
    "    prev_index = little_endian_to_int(s.read(4))\n",
    "    script_sig = Script.parse(s)\n",
    "    sequence = little_endian_to_int(s.read(4))\n",
    "    return cls(prev_tx, prev_index, script_sig, sequence)"
   ]
  },
  {
   "cell_type": "markdown",
   "metadata": {},
   "source": [
    "### Exercise 3\n",
    "\n",
    "Write the outputs parsing part of the `parse` method in `Tx` and the `parse` method for `TxOut`.\n",
    "\n",
    "#### Make [this test](/edit/code-ch05/tx.py) pass: `tx.py:TxTest:test_parse_outputs`"
   ]
  },
  {
   "cell_type": "code",
   "execution_count": 16,
   "metadata": {},
   "outputs": [
    {
     "name": "stderr",
     "output_type": "stream",
     "text": [
      "E\n",
      "======================================================================\n",
      "ERROR: setUpClass (tx.TxTest)\n",
      "----------------------------------------------------------------------\n",
      "Traceback (most recent call last):\n",
      "  File \"/Users/gim-yeon-ug/programmingbitcoin/code-ch05/tx.py\", line 240, in setUpClass\n",
      "    TxFetcher.load_cache(cls.cache_file)\n",
      "  File \"/Users/gim-yeon-ug/programmingbitcoin/code-ch05/tx.py\", line 61, in load_cache\n",
      "    tx = Tx.parse(BytesIO(raw))\n",
      "  File \"/Users/gim-yeon-ug/programmingbitcoin/code-ch05/tx.py\", line 119, in parse\n",
      "    raise NotImplementedError\n",
      "NotImplementedError\n",
      "\n",
      "----------------------------------------------------------------------\n",
      "Ran 0 tests in 0.002s\n",
      "\n",
      "FAILED (errors=1)\n"
     ]
    }
   ],
   "source": [
    "# Exercise 3\n",
    "\n",
    "reload(tx)\n",
    "run(tx.TxTest(\"test_parse_outputs\"))\n",
    "def parse(cls, s, testnet=False):\n",
    "        version = little_endian_to_int(s.read(4))\n",
    "        num_inputs = read_varint(s)\n",
    "        inputs = []\n",
    "        for _ in range(num_inputs):\n",
    "            inputs.append(TxIn.parse(s))\n",
    "        num_outputs = read_varint(s)\n",
    "        outputs = []\n",
    "        for _ in range(num_outputs):\n",
    "            outputs.append(TxOut.parse(s))\n",
    "        return cls(version, inputs, outputs, None, testnet=testnet)\n",
    "    \n",
    "def parse(cls, s):\n",
    "    '''Takes a byte stream and parses the tx_output at the start.\n",
    "    Returns a TxOut object.\n",
    "    '''\n",
    "    amount = little_endian_to_int(s.read(8))\n",
    "    script_pubkey = Script.parse(s)\n",
    "    return cls(amount, script_pubkey)"
   ]
  },
  {
   "cell_type": "markdown",
   "metadata": {},
   "source": [
    "### Exercise 4\n",
    "\n",
    "Write the Locktime parsing part of the `parse` method in `Tx`.\n",
    "\n",
    "#### Make [this test](/edit/code-ch05/tx.py) pass: `tx.py:TxTest:test_parse_locktime`"
   ]
  },
  {
   "cell_type": "code",
   "execution_count": 21,
   "metadata": {},
   "outputs": [
    {
     "name": "stderr",
     "output_type": "stream",
     "text": [
      "E\n",
      "======================================================================\n",
      "ERROR: setUpClass (tx.TxTest)\n",
      "----------------------------------------------------------------------\n",
      "Traceback (most recent call last):\n",
      "  File \"/Users/gim-yeon-ug/programmingbitcoin/code-ch05/tx.py\", line 240, in setUpClass\n",
      "    TxFetcher.load_cache(cls.cache_file)\n",
      "  File \"/Users/gim-yeon-ug/programmingbitcoin/code-ch05/tx.py\", line 61, in load_cache\n",
      "    tx = Tx.parse(BytesIO(raw))\n",
      "  File \"/Users/gim-yeon-ug/programmingbitcoin/code-ch05/tx.py\", line 119, in parse\n",
      "    raise NotImplementedError\n",
      "NotImplementedError\n",
      "\n",
      "----------------------------------------------------------------------\n",
      "Ran 0 tests in 0.003s\n",
      "\n",
      "FAILED (errors=1)\n"
     ]
    }
   ],
   "source": [
    "# Exercise 4\n",
    "\n",
    "reload(tx)\n",
    "run(tx.TxTest(\"test_parse_locktime\"))\n",
    "def parse(cls, s, testnet=False):\n",
    "    version = little_endian_to_int(s.read(4))\n",
    "    num_inputs = read_varint(s)\n",
    "    inputs = []\n",
    "    for _ in range(num_inputs):\n",
    "        inputs.append(TxIn.parse(s))\n",
    "    num_outputs = read_varint(s)\n",
    "    outputs = []\n",
    "    for _ in range(num_outputs):\n",
    "        outputs.append(TxOut.parse(s))\n",
    "    locktime = little_endian_to_int(s.read(4))\n",
    "    return cls(version, inputs, outputs, locktime, testnet=testnet)"
   ]
  },
  {
   "cell_type": "markdown",
   "metadata": {},
   "source": [
    "### Exercise 5\n",
    "\n",
    "What is the ScriptSig from the second input, ScriptPubKey from the first output and the amount of the second output for this transaction?\n",
    "\n",
    "```\n",
    "010000000456919960ac691763688d3d3bcea9ad6ecaf875df5339e148a1fc61c6ed7a069e0100\n",
    "00006a47304402204585bcdef85e6b1c6af5c2669d4830ff86e42dd205c0e089bc2a821657e951\n",
    "c002201024a10366077f87d6bce1f7100ad8cfa8a064b39d4e8fe4ea13a7b71aa8180f012102f0\n",
    "da57e85eec2934a82a585ea337ce2f4998b50ae699dd79f5880e253dafafb7feffffffeb8f51f4\n",
    "038dc17e6313cf831d4f02281c2a468bde0fafd37f1bf882729e7fd3000000006a473044022078\n",
    "99531a52d59a6de200179928ca900254a36b8dff8bb75f5f5d71b1cdc26125022008b422690b84\n",
    "61cb52c3cc30330b23d574351872b7c361e9aae3649071c1a7160121035d5c93d9ac96881f19ba\n",
    "1f686f15f009ded7c62efe85a872e6a19b43c15a2937feffffff567bf40595119d1bb8a3037c35\n",
    "6efd56170b64cbcc160fb028fa10704b45d775000000006a47304402204c7c7818424c7f7911da\n",
    "6cddc59655a70af1cb5eaf17c69dadbfc74ffa0b662f02207599e08bc8023693ad4e9527dc42c3\n",
    "4210f7a7d1d1ddfc8492b654a11e7620a0012102158b46fbdff65d0172b7989aec8850aa0dae49\n",
    "abfb84c81ae6e5b251a58ace5cfeffffffd63a5e6c16e620f86f375925b21cabaf736c779f88fd\n",
    "04dcad51d26690f7f345010000006a47304402200633ea0d3314bea0d95b3cd8dadb2ef79ea833\n",
    "1ffe1e61f762c0f6daea0fabde022029f23b3e9c30f080446150b23852028751635dcee2be669c\n",
    "2a1686a4b5edf304012103ffd6f4a67e94aba353a00882e563ff2722eb4cff0ad6006e86ee20df\n",
    "e7520d55feffffff0251430f00000000001976a914ab0c0b2e98b1ab6dbf67d4750b0a56244948\n",
    "a87988ac005a6202000000001976a9143c82d7df364eb6c75be8c80df2b3eda8db57397088ac46\n",
    "430600\n",
    "```"
   ]
  },
  {
   "cell_type": "code",
   "execution_count": 26,
   "metadata": {},
   "outputs": [
    {
     "ename": "NotImplementedError",
     "evalue": "",
     "output_type": "error",
     "traceback": [
      "\u001b[0;31m---------------------------------------------------------------------------\u001b[0m",
      "\u001b[0;31mNotImplementedError\u001b[0m                       Traceback (most recent call last)",
      "\u001b[0;32m<ipython-input-26-7a3e0f14eb0e>\u001b[0m in \u001b[0;36m<module>\u001b[0;34m\u001b[0m\n\u001b[1;32m      4\u001b[0m \u001b[0;32mfrom\u001b[0m \u001b[0mtx\u001b[0m \u001b[0;32mimport\u001b[0m \u001b[0mTx\u001b[0m\u001b[0;34m\u001b[0m\u001b[0;34m\u001b[0m\u001b[0m\n\u001b[1;32m      5\u001b[0m \u001b[0mstream\u001b[0m \u001b[0;34m=\u001b[0m \u001b[0mBytesIO\u001b[0m\u001b[0;34m(\u001b[0m\u001b[0mbytes\u001b[0m\u001b[0;34m.\u001b[0m\u001b[0mfromhex\u001b[0m\u001b[0;34m(\u001b[0m\u001b[0mhex_transaction\u001b[0m\u001b[0;34m)\u001b[0m\u001b[0;34m)\u001b[0m\u001b[0;34m\u001b[0m\u001b[0;34m\u001b[0m\u001b[0m\n\u001b[0;32m----> 6\u001b[0;31m \u001b[0mtx_obj\u001b[0m \u001b[0;34m=\u001b[0m \u001b[0mTx\u001b[0m\u001b[0;34m.\u001b[0m\u001b[0mparse\u001b[0m\u001b[0;34m(\u001b[0m\u001b[0mstream\u001b[0m\u001b[0;34m)\u001b[0m\u001b[0;34m\u001b[0m\u001b[0;34m\u001b[0m\u001b[0m\n\u001b[0m\u001b[1;32m      7\u001b[0m \u001b[0mprint\u001b[0m\u001b[0;34m(\u001b[0m\u001b[0mtx_obj\u001b[0m\u001b[0;34m.\u001b[0m\u001b[0mtx_ins\u001b[0m\u001b[0;34m[\u001b[0m\u001b[0;36m1\u001b[0m\u001b[0;34m]\u001b[0m\u001b[0;34m.\u001b[0m\u001b[0mscript_sig\u001b[0m\u001b[0;34m)\u001b[0m\u001b[0;34m\u001b[0m\u001b[0;34m\u001b[0m\u001b[0m\n\u001b[1;32m      8\u001b[0m \u001b[0mhex_transaction\u001b[0m \u001b[0;34m=\u001b[0m \u001b[0;34m'010000000456919960ac691763688d3d3bcea9ad6ecaf875df5339e148a1fc61c6ed7a069e010000006a47304402204585bcdef85e6b1c6af5c2669d4830ff86e42dd205c0e089bc2a821657e951c002201024a10366077f87d6bce1f7100ad8cfa8a064b39d4e8fe4ea13a7b71aa8180f012102f0da57e85eec2934a82a585ea337ce2f4998b50ae699dd79f5880e253dafafb7feffffffeb8f51f4038dc17e6313cf831d4f02281c2a468bde0fafd37f1bf882729e7fd3000000006a47304402207899531a52d59a6de200179928ca900254a36b8dff8bb75f5f5d71b1cdc26125022008b422690b8461cb52c3cc30330b23d574351872b7c361e9aae3649071c1a7160121035d5c93d9ac96881f19ba1f686f15f009ded7c62efe85a872e6a19b43c15a2937feffffff567bf40595119d1bb8a3037c356efd56170b64cbcc160fb028fa10704b45d775000000006a47304402204c7c7818424c7f7911da6cddc59655a70af1cb5eaf17c69dadbfc74ffa0b662f02207599e08bc8023693ad4e9527dc42c34210f7a7d1d1ddfc8492b654a11e7620a0012102158b46fbdff65d0172b7989aec8850aa0dae49abfb84c81ae6e5b251a58ace5cfeffffffd63a5e6c16e620f86f375925b21cabaf736c779f88fd04dcad51d26690f7f345010000006a47304402200633ea0d3314bea0d95b3cd8dadb2ef79ea8331ffe1e61f762c0f6daea0fabde022029f23b3e9c30f080446150b23852028751635dcee2be669c2a1686a4b5edf304012103ffd6f4a67e94aba353a00882e563ff2722eb4cff0ad6006e86ee20dfe7520d55feffffff0251430f00000000001976a914ab0c0b2e98b1ab6dbf67d4750b0a56244948a87988ac005a6202000000001976a9143c82d7df364eb6c75be8c80df2b3eda8db57397088ac46430600'\u001b[0m\u001b[0;34m\u001b[0m\u001b[0;34m\u001b[0m\u001b[0m\n",
      "\u001b[0;32m~/programmingbitcoin/code-ch05/tx.py\u001b[0m in \u001b[0;36mparse\u001b[0;34m(cls, s, testnet)\u001b[0m\n\u001b[1;32m    117\u001b[0m         \u001b[0;31m# locktime is an integer in 4 bytes, little-endian\u001b[0m\u001b[0;34m\u001b[0m\u001b[0;34m\u001b[0m\u001b[0;34m\u001b[0m\u001b[0m\n\u001b[1;32m    118\u001b[0m         \u001b[0;31m# return an instance of the class (see __init__ for args)\u001b[0m\u001b[0;34m\u001b[0m\u001b[0;34m\u001b[0m\u001b[0;34m\u001b[0m\u001b[0m\n\u001b[0;32m--> 119\u001b[0;31m         \u001b[0;32mraise\u001b[0m \u001b[0mNotImplementedError\u001b[0m\u001b[0;34m\u001b[0m\u001b[0;34m\u001b[0m\u001b[0m\n\u001b[0m\u001b[1;32m    120\u001b[0m \u001b[0;34m\u001b[0m\u001b[0m\n\u001b[1;32m    121\u001b[0m     \u001b[0;31m# tag::source6[]\u001b[0m\u001b[0;34m\u001b[0m\u001b[0;34m\u001b[0m\u001b[0;34m\u001b[0m\u001b[0m\n",
      "\u001b[0;31mNotImplementedError\u001b[0m: "
     ]
    }
   ],
   "source": [
    "# Exercise 5\n",
    "\n",
    "from io import BytesIO\n",
    "from tx import Tx\n",
    "hex_transaction = '010000000456919960ac691763688d3d3bcea9ad6ecaf875df5339e148a1fc61c6ed7a069e010000006a47304402204585bcdef85e6b1c6af5c2669d4830ff86e42dd205c0e089bc2a821657e951c002201024a10366077f87d6bce1f7100ad8cfa8a064b39d4e8fe4ea13a7b71aa8180f012102f0da57e85eec2934a82a585ea337ce2f4998b50ae699dd79f5880e253dafafb7feffffffeb8f51f4038dc17e6313cf831d4f02281c2a468bde0fafd37f1bf882729e7fd3000000006a47304402207899531a52d59a6de200179928ca900254a36b8dff8bb75f5f5d71b1cdc26125022008b422690b8461cb52c3cc30330b23d574351872b7c361e9aae3649071c1a7160121035d5c93d9ac96881f19ba1f686f15f009ded7c62efe85a872e6a19b43c15a2937feffffff567bf40595119d1bb8a3037c356efd56170b64cbcc160fb028fa10704b45d775000000006a47304402204c7c7818424c7f7911da6cddc59655a70af1cb5eaf17c69dadbfc74ffa0b662f02207599e08bc8023693ad4e9527dc42c34210f7a7d1d1ddfc8492b654a11e7620a0012102158b46fbdff65d0172b7989aec8850aa0dae49abfb84c81ae6e5b251a58ace5cfeffffffd63a5e6c16e620f86f375925b21cabaf736c779f88fd04dcad51d26690f7f345010000006a47304402200633ea0d3314bea0d95b3cd8dadb2ef79ea8331ffe1e61f762c0f6daea0fabde022029f23b3e9c30f080446150b23852028751635dcee2be669c2a1686a4b5edf304012103ffd6f4a67e94aba353a00882e563ff2722eb4cff0ad6006e86ee20dfe7520d55feffffff0251430f00000000001976a914ab0c0b2e98b1ab6dbf67d4750b0a56244948a87988ac005a6202000000001976a9143c82d7df364eb6c75be8c80df2b3eda8db57397088ac46430600'\n",
    "stream = BytesIO(bytes.fromhex(hex_transaction))\n",
    "tx_obj = Tx.parse(stream)\n",
    "print(tx_obj.tx_ins[1].script_sig)\n",
    "print(tx_obj.tx_outs[0].script_pubkey)\n",
    "print(tx_obj.tx_outs[1].amount)\n",
    "# convert the hex_transaction to binary\n",
    "# create a stream using BytesIO\n",
    "# use Tx.parse to get the transaction object.\n",
    "# ScriptSig from second input\n",
    "# ScriptPubKey from first output\n",
    "# Amount from second output"
   ]
  },
  {
   "cell_type": "markdown",
   "metadata": {},
   "source": [
    "### Exercise 6\n",
    "\n",
    "Write the `fee` method for the `Tx` class.\n",
    "\n",
    "#### Make [this test](/edit/code-ch05/tx.py) pass: `tx.py:TxTest:test_fee`"
   ]
  },
  {
   "cell_type": "code",
   "execution_count": 28,
   "metadata": {},
   "outputs": [
    {
     "name": "stderr",
     "output_type": "stream",
     "text": [
      "E\n",
      "======================================================================\n",
      "ERROR: setUpClass (tx.TxTest)\n",
      "----------------------------------------------------------------------\n",
      "Traceback (most recent call last):\n",
      "  File \"/Users/gim-yeon-ug/programmingbitcoin/code-ch05/tx.py\", line 240, in setUpClass\n",
      "    TxFetcher.load_cache(cls.cache_file)\n",
      "  File \"/Users/gim-yeon-ug/programmingbitcoin/code-ch05/tx.py\", line 61, in load_cache\n",
      "    tx = Tx.parse(BytesIO(raw))\n",
      "  File \"/Users/gim-yeon-ug/programmingbitcoin/code-ch05/tx.py\", line 119, in parse\n",
      "    raise NotImplementedError\n",
      "NotImplementedError\n",
      "\n",
      "----------------------------------------------------------------------\n",
      "Ran 0 tests in 0.002s\n",
      "\n",
      "FAILED (errors=1)\n"
     ]
    },
    {
     "ename": "NameError",
     "evalue": "name 'TestCase' is not defined",
     "output_type": "error",
     "traceback": [
      "\u001b[0;31m---------------------------------------------------------------------------\u001b[0m",
      "\u001b[0;31mNameError\u001b[0m                                 Traceback (most recent call last)",
      "\u001b[0;32m<ipython-input-28-11a7d6cccf12>\u001b[0m in \u001b[0;36m<module>\u001b[0;34m\u001b[0m\n\u001b[1;32m     11\u001b[0m     \u001b[0;32mreturn\u001b[0m \u001b[0minput_sum\u001b[0m \u001b[0;34m-\u001b[0m \u001b[0moutput_sum\u001b[0m\u001b[0;34m\u001b[0m\u001b[0;34m\u001b[0m\u001b[0m\n\u001b[1;32m     12\u001b[0m \u001b[0;34m\u001b[0m\u001b[0m\n\u001b[0;32m---> 13\u001b[0;31m \u001b[0;32mclass\u001b[0m \u001b[0mChapterTest\u001b[0m\u001b[0;34m(\u001b[0m\u001b[0mTestCase\u001b[0m\u001b[0;34m)\u001b[0m\u001b[0;34m:\u001b[0m\u001b[0;34m\u001b[0m\u001b[0;34m\u001b[0m\u001b[0m\n\u001b[0m\u001b[1;32m     14\u001b[0m \u001b[0;34m\u001b[0m\u001b[0m\n\u001b[1;32m     15\u001b[0m     \u001b[0;32mdef\u001b[0m \u001b[0mtest_apply\u001b[0m\u001b[0;34m(\u001b[0m\u001b[0mself\u001b[0m\u001b[0;34m)\u001b[0m\u001b[0;34m:\u001b[0m\u001b[0;34m\u001b[0m\u001b[0;34m\u001b[0m\u001b[0m\n",
      "\u001b[0;31mNameError\u001b[0m: name 'TestCase' is not defined"
     ]
    }
   ],
   "source": [
    "# Exercise 6\n",
    "\n",
    "reload(tx)\n",
    "run(tx.TxTest(\"test_fee\"))\n",
    "def fee(self, testnet=False):\n",
    "    input_sum, output_sum = 0, 0\n",
    "    for tx_in in self.tx_ins:\n",
    "        input_sum += tx_in.value(testnet=testnet)\n",
    "    for tx_out in self.tx_outs:\n",
    "        output_sum += tx_out.amount\n",
    "    return input_sum - output_sum\n",
    "\n",
    "class ChapterTest(TestCase):\n",
    "\n",
    "    def test_apply(self):\n",
    "        TxIn.parse = methods[0]\n",
    "        TxOut.parse = methods[1]\n",
    "        Tx.parse = methods[2]\n",
    "        Tx.fee = fee\n"
   ]
  },
  {
   "cell_type": "code",
   "execution_count": null,
   "metadata": {},
   "outputs": [],
   "source": []
  }
 ],
 "metadata": {
  "kernelspec": {
   "display_name": "Python 3",
   "language": "python",
   "name": "python3"
  },
  "language_info": {
   "codemirror_mode": {
    "name": "ipython",
    "version": 3
   },
   "file_extension": ".py",
   "mimetype": "text/x-python",
   "name": "python",
   "nbconvert_exporter": "python",
   "pygments_lexer": "ipython3",
   "version": "3.7.4"
  }
 },
 "nbformat": 4,
 "nbformat_minor": 2
}
